{
  "address": "0xe0771a4a9118051060Fd661B65c52e41863707DA",
  "abi": [
    {
      "inputs": [
        {
          "internalType": "uint256",
          "name": "_lockTime",
          "type": "uint256"
        },
        {
          "internalType": "address",
          "name": "aggregatorAddr",
          "type": "address"
        }
      ],
      "stateMutability": "nonpayable",
      "type": "constructor"
    },
    {
      "inputs": [],
      "name": "dataFeed",
      "outputs": [
        {
          "internalType": "contract AggregatorV3Interface",
          "name": "",
          "type": "address"
        }
      ],
      "stateMutability": "view",
      "type": "function"
    },
    {
      "inputs": [],
      "name": "fund",
      "outputs": [],
      "stateMutability": "payable",
      "type": "function"
    },
    {
      "inputs": [
        {
          "internalType": "address",
          "name": "",
          "type": "address"
        }
      ],
      "name": "fundesToAmount",
      "outputs": [
        {
          "internalType": "uint256",
          "name": "",
          "type": "uint256"
        }
      ],
      "stateMutability": "view",
      "type": "function"
    },
    {
      "inputs": [],
      "name": "getChainlinkDataFeedLatestAnswer",
      "outputs": [
        {
          "internalType": "int256",
          "name": "",
          "type": "int256"
        }
      ],
      "stateMutability": "view",
      "type": "function"
    },
    {
      "inputs": [],
      "name": "getFund",
      "outputs": [],
      "stateMutability": "nonpayable",
      "type": "function"
    },
    {
      "inputs": [],
      "name": "getFundSuccess",
      "outputs": [
        {
          "internalType": "bool",
          "name": "",
          "type": "bool"
        }
      ],
      "stateMutability": "view",
      "type": "function"
    },
    {
      "inputs": [],
      "name": "owner",
      "outputs": [
        {
          "internalType": "address",
          "name": "",
          "type": "address"
        }
      ],
      "stateMutability": "view",
      "type": "function"
    },
    {
      "inputs": [],
      "name": "reFund",
      "outputs": [],
      "stateMutability": "nonpayable",
      "type": "function"
    },
    {
      "inputs": [
        {
          "internalType": "address",
          "name": "_erc20Addr",
          "type": "address"
        }
      ],
      "name": "setERC20",
      "outputs": [],
      "stateMutability": "nonpayable",
      "type": "function"
    },
    {
      "inputs": [
        {
          "internalType": "address",
          "name": "newOwner",
          "type": "address"
        }
      ],
      "name": "transFerOwnerShip",
      "outputs": [],
      "stateMutability": "nonpayable",
      "type": "function"
    },
    {
      "inputs": [
        {
          "internalType": "address",
          "name": "funder",
          "type": "address"
        },
        {
          "internalType": "uint256",
          "name": "updataAmount",
          "type": "uint256"
        }
      ],
      "name": "upDataFundToToken",
      "outputs": [],
      "stateMutability": "nonpayable",
      "type": "function"
    }
  ],
  "transactionHash": "0x55cbfd67bf9fe2b8395fd14d1d409a8c23d10596a4058a8fd768bf696ed36963",
  "args": [
    500,
    "0x694AA1769357215DE4FAC081bf1f309aDC325306"
  ],
  "numDeployments": 1,
  "solcInputHash": "5b03d235a4e59e976f49552a8102f17b",
  "bytecode": "0x60806040526000600560146101000a81548160ff02191690831515021790555034801561002b57600080fd5b5060405161144a38038061144a833981810160405281019061004d919061017d565b80600160006101000a81548173ffffffffffffffffffffffffffffffffffffffff021916908373ffffffffffffffffffffffffffffffffffffffff16021790555033600260006101000a81548173ffffffffffffffffffffffffffffffffffffffff021916908373ffffffffffffffffffffffffffffffffffffffff160217905550426003819055508160048190555050506101bd565b600080fd5b6000819050919050565b6100fc816100e9565b811461010757600080fd5b50565b600081519050610119816100f3565b92915050565b600073ffffffffffffffffffffffffffffffffffffffff82169050919050565b600061014a8261011f565b9050919050565b61015a8161013f565b811461016557600080fd5b50565b60008151905061017781610151565b92915050565b60008060408385031215610194576101936100e4565b5b60006101a28582860161010a565b92505060206101b385828601610168565b9150509250929050565b61127e806101cc6000396000f3fe60806040526004361061009c5760003560e01c80639e42ff90116100645780639e42ff9014610160578063ae417a561461018b578063b60d4288146101b4578063bea4dfb5146101be578063c29a6fda146101e9578063da4658e0146102125761009c565b80630ff0a4df146100a157806321d731c5146100b85780635eb70e37146100e15780638da5cb5b1461011e5780638edd6eb614610149575b600080fd5b3480156100ad57600080fd5b506100b661023d565b005b3480156100c457600080fd5b506100df60048036038101906100da9190610bea565b61045c565b005b3480156100ed57600080fd5b5061010860048036038101906101039190610c2a565b610533565b6040516101159190610c66565b60405180910390f35b34801561012a57600080fd5b5061013361054b565b6040516101409190610c90565b60405180910390f35b34801561015557600080fd5b5061015e610571565b005b34801561016c57600080fd5b506101756107b5565b6040516101829190610d0a565b60405180910390f35b34801561019757600080fd5b506101b260048036038101906101ad9190610c2a565b6107db565b005b6101bc6108af565b005b3480156101ca57600080fd5b506101d3610999565b6040516101e09190610d3e565b60405180910390f35b3480156101f557600080fd5b50610210600480360381019061020b9190610c2a565b610a3a565b005b34801561021e57600080fd5b50610227610b0e565b6040516102349190610d74565b60405180910390f35b60045460035461024d9190610dbe565b42101561028f576040517f08c379a000000000000000000000000000000000000000000000000000000000815260040161028690610e4f565b60405180910390fd5b68056bc75e2d631000006102a247610b21565b106102e2576040517f08c379a00000000000000000000000000000000000000000000000000000000081526004016102d990610e95565b60405180910390fd5b60008060003373ffffffffffffffffffffffffffffffffffffffff1673ffffffffffffffffffffffffffffffffffffffff16815260200190815260200160002054905060008111610368576040517f08c379a000000000000000000000000000000000000000000000000000000000815260040161035f90610e95565b60405180910390fd5b60003373ffffffffffffffffffffffffffffffffffffffff168260405161038e90610ee3565b60006040518083038185875af1925050503d80600081146103cb576040519150601f19603f3d011682016040523d82523d6000602084013e6103d0565b606091505b5050905080610414576040517f08c379a000000000000000000000000000000000000000000000000000000000815260040161040b90610e95565b60405180910390fd5b60008060003373ffffffffffffffffffffffffffffffffffffffff1673ffffffffffffffffffffffffffffffffffffffff168152602001908152602001600020819055505050565b600560009054906101000a900473ffffffffffffffffffffffffffffffffffffffff1673ffffffffffffffffffffffffffffffffffffffff163373ffffffffffffffffffffffffffffffffffffffff16146104ec576040517f08c379a00000000000000000000000000000000000000000000000000000000081526004016104e390610e95565b60405180910390fd5b806000808473ffffffffffffffffffffffffffffffffffffffff1673ffffffffffffffffffffffffffffffffffffffff168152602001908152602001600020819055505050565b60006020528060005260406000206000915090505481565b600260009054906101000a900473ffffffffffffffffffffffffffffffffffffffff1681565b600260009054906101000a900473ffffffffffffffffffffffffffffffffffffffff1673ffffffffffffffffffffffffffffffffffffffff163373ffffffffffffffffffffffffffffffffffffffff1614610601576040517f08c379a00000000000000000000000000000000000000000000000000000000081526004016105f890610f44565b60405180910390fd5b6004546003546106119190610dbe565b421015610653576040517f08c379a000000000000000000000000000000000000000000000000000000000815260040161064a90610e4f565b60405180910390fd5b68056bc75e2d6310000061066647610b21565b10156106a7576040517f08c379a000000000000000000000000000000000000000000000000000000000815260040161069e90610fb0565b60405180910390fd5b60003373ffffffffffffffffffffffffffffffffffffffff16476040516106cd90610ee3565b60006040518083038185875af1925050503d806000811461070a576040519150601f19603f3d011682016040523d82523d6000602084013e61070f565b606091505b5050905080610753576040517f08c379a000000000000000000000000000000000000000000000000000000000815260040161074a90610e95565b60405180910390fd5b60008060003373ffffffffffffffffffffffffffffffffffffffff1673ffffffffffffffffffffffffffffffffffffffff168152602001908152602001600020819055506001600560146101000a81548160ff02191690831515021790555050565b600160009054906101000a900473ffffffffffffffffffffffffffffffffffffffff1681565b600260009054906101000a900473ffffffffffffffffffffffffffffffffffffffff1673ffffffffffffffffffffffffffffffffffffffff163373ffffffffffffffffffffffffffffffffffffffff161461086b576040517f08c379a000000000000000000000000000000000000000000000000000000000815260040161086290610f44565b60405180910390fd5b80600260006101000a81548173ffffffffffffffffffffffffffffffffffffffff021916908373ffffffffffffffffffffffffffffffffffffffff16021790555050565b68056bc75e2d631000006108c234610b21565b1015610903576040517f08c379a00000000000000000000000000000000000000000000000000000000081526004016108fa9061101c565b60405180910390fd5b6004546003546109139190610dbe565b4210610954576040517f08c379a000000000000000000000000000000000000000000000000000000000815260040161094b90611088565b60405180910390fd5b346000803373ffffffffffffffffffffffffffffffffffffffff1673ffffffffffffffffffffffffffffffffffffffff16815260200190815260200160002081905550565b600080600160009054906101000a900473ffffffffffffffffffffffffffffffffffffffff1673ffffffffffffffffffffffffffffffffffffffff1663feaf968c6040518163ffffffff1660e01b815260040160a060405180830381865afa158015610a09573d6000803e3d6000fd5b505050506040513d601f19601f82011682018060405250810190610a2d919061112b565b5050509150508091505090565b600260009054906101000a900473ffffffffffffffffffffffffffffffffffffffff1673ffffffffffffffffffffffffffffffffffffffff163373ffffffffffffffffffffffffffffffffffffffff1614610aca576040517f08c379a0000000000000000000000000000000000000000000000000000000008152600401610ac190610f44565b60405180910390fd5b80600560006101000a81548173ffffffffffffffffffffffffffffffffffffffff021916908373ffffffffffffffffffffffffffffffffffffffff16021790555050565b600560149054906101000a900460ff1681565b600080610b2c610999565b90506305f5e1008184610b3f91906111a6565b610b499190611217565b915050919050565b600080fd5b600073ffffffffffffffffffffffffffffffffffffffff82169050919050565b6000610b8182610b56565b9050919050565b610b9181610b76565b8114610b9c57600080fd5b50565b600081359050610bae81610b88565b92915050565b6000819050919050565b610bc781610bb4565b8114610bd257600080fd5b50565b600081359050610be481610bbe565b92915050565b60008060408385031215610c0157610c00610b51565b5b6000610c0f85828601610b9f565b9250506020610c2085828601610bd5565b9150509250929050565b600060208284031215610c4057610c3f610b51565b5b6000610c4e84828501610b9f565b91505092915050565b610c6081610bb4565b82525050565b6000602082019050610c7b6000830184610c57565b92915050565b610c8a81610b76565b82525050565b6000602082019050610ca56000830184610c81565b92915050565b6000819050919050565b6000610cd0610ccb610cc684610b56565b610cab565b610b56565b9050919050565b6000610ce282610cb5565b9050919050565b6000610cf482610cd7565b9050919050565b610d0481610ce9565b82525050565b6000602082019050610d1f6000830184610cfb565b92915050565b6000819050919050565b610d3881610d25565b82525050565b6000602082019050610d536000830184610d2f565b92915050565b60008115159050919050565b610d6e81610d59565b82525050565b6000602082019050610d896000830184610d65565b92915050565b7f4e487b7100000000000000000000000000000000000000000000000000000000600052601160045260246000fd5b6000610dc982610bb4565b9150610dd483610bb4565b9250828201905080821115610dec57610deb610d8f565b5b92915050565b600082825260208201905092915050565b7f77696e646f77206973206e6f7420636c6f736564000000000000000000000000600082015250565b6000610e39601483610df2565b9150610e4482610e03565b602082019050919050565b60006020820190508181036000830152610e6881610e2c565b9050919050565b50565b6000610e7f600083610df2565b9150610e8a82610e6f565b600082019050919050565b60006020820190508181036000830152610eae81610e72565b9050919050565b600081905092915050565b6000610ecd600083610eb5565b9150610ed882610e6f565b600082019050919050565b6000610eee82610ec0565b9150819050919050565b7f6e6f74206f776e65720000000000000000000000000000000000000000000000600082015250565b6000610f2e600983610df2565b9150610f3982610ef8565b602082019050919050565b60006020820190508181036000830152610f5d81610f21565b9050919050565b7f62616c616e6365206e6f7420656e6f7567680000000000000000000000000000600082015250565b6000610f9a601283610df2565b9150610fa582610f64565b602082019050919050565b60006020820190508181036000830152610fc981610f8d565b9050919050565b7f73656e64206d6f72652065746800000000000000000000000000000000000000600082015250565b6000611006600d83610df2565b915061101182610fd0565b602082019050919050565b6000602082019050818103600083015261103581610ff9565b9050919050565b7f77696e646f7720697320636c6f73656400000000000000000000000000000000600082015250565b6000611072601083610df2565b915061107d8261103c565b602082019050919050565b600060208201905081810360008301526110a181611065565b9050919050565b600069ffffffffffffffffffff82169050919050565b6110c7816110a8565b81146110d257600080fd5b50565b6000815190506110e4816110be565b92915050565b6110f381610d25565b81146110fe57600080fd5b50565b600081519050611110816110ea565b92915050565b60008151905061112581610bbe565b92915050565b600080600080600060a0868803121561114757611146610b51565b5b6000611155888289016110d5565b955050602061116688828901611101565b945050604061117788828901611116565b935050606061118888828901611116565b9250506080611199888289016110d5565b9150509295509295909350565b60006111b182610bb4565b91506111bc83610bb4565b92508282026111ca81610bb4565b915082820484148315176111e1576111e0610d8f565b5b5092915050565b7f4e487b7100000000000000000000000000000000000000000000000000000000600052601260045260246000fd5b600061122282610bb4565b915061122d83610bb4565b92508261123d5761123c6111e8565b5b82820490509291505056fea2646970667358221220bbf02500c0af587b0e67b28aebb260d8105f0739d80b2bdaa9c924ed443eb39264736f6c634300081b0033",
  "devdoc": {
    "kind": "dev",
    "methods": {},
    "version": 1
  },
  "userdoc": {
    "kind": "user",
    "methods": {
      "getChainlinkDataFeedLatestAnswer()": {
        "notice": "Returns the latest answer."
      }
    },
    "version": 1
  },
  "storageLayout": {
    "storage": [
      {
        "astId": 53,
        "contract": "contracts/FundMe.sol:FundMe",
        "label": "fundesToAmount",
        "offset": 0,
        "slot": "0",
        "type": "t_mapping(t_address,t_uint256)"
      },
      {
        "astId": 63,
        "contract": "contracts/FundMe.sol:FundMe",
        "label": "dataFeed",
        "offset": 0,
        "slot": "1",
        "type": "t_contract(AggregatorV3Interface)45"
      },
      {
        "astId": 65,
        "contract": "contracts/FundMe.sol:FundMe",
        "label": "owner",
        "offset": 0,
        "slot": "2",
        "type": "t_address"
      },
      {
        "astId": 67,
        "contract": "contracts/FundMe.sol:FundMe",
        "label": "deploymentTimeSatmp",
        "offset": 0,
        "slot": "3",
        "type": "t_uint256"
      },
      {
        "astId": 69,
        "contract": "contracts/FundMe.sol:FundMe",
        "label": "lockTime",
        "offset": 0,
        "slot": "4",
        "type": "t_uint256"
      },
      {
        "astId": 71,
        "contract": "contracts/FundMe.sol:FundMe",
        "label": "erc20",
        "offset": 0,
        "slot": "5",
        "type": "t_address"
      },
      {
        "astId": 74,
        "contract": "contracts/FundMe.sol:FundMe",
        "label": "getFundSuccess",
        "offset": 20,
        "slot": "5",
        "type": "t_bool"
      }
    ],
    "types": {
      "t_address": {
        "encoding": "inplace",
        "label": "address",
        "numberOfBytes": "20"
      },
      "t_bool": {
        "encoding": "inplace",
        "label": "bool",
        "numberOfBytes": "1"
      },
      "t_contract(AggregatorV3Interface)45": {
        "encoding": "inplace",
        "label": "contract AggregatorV3Interface",
        "numberOfBytes": "20"
      },
      "t_mapping(t_address,t_uint256)": {
        "encoding": "mapping",
        "key": "t_address",
        "label": "mapping(address => uint256)",
        "numberOfBytes": "32",
        "value": "t_uint256"
      },
      "t_uint256": {
        "encoding": "inplace",
        "label": "uint256",
        "numberOfBytes": "32"
      }
    }
  }
}